{
  "abi": [
    {
      "inputs": [],
      "stateMutability": "nonpayable",
      "type": "constructor"
    },
    {
      "anonymous": false,
      "inputs": [
        {
          "indexed": false,
          "internalType": "enum BigSky.State",
          "name": "state",
          "type": "uint8"
        }
      ],
      "name": "GameStarted",
      "type": "event"
    },
    {
      "anonymous": false,
      "inputs": [
        {
          "indexed": true,
          "internalType": "uint256",
          "name": "turn",
          "type": "uint256"
        },
        {
          "indexed": true,
          "internalType": "contract Ship",
          "name": "ship",
          "type": "address"
        }
      ],
      "name": "ShipRegistered",
      "type": "event"
    },
    {
      "anonymous": false,
      "inputs": [
        {
          "indexed": false,
          "internalType": "uint256",
          "name": "playerScore",
          "type": "uint256"
        }
      ],
      "name": "StarCaptured",
      "type": "event"
    },
    {
      "anonymous": false,
      "inputs": [
        {
          "components": [
            {
              "internalType": "uint256",
              "name": "positionX",
              "type": "uint256"
            },
            {
              "internalType": "uint256",
              "name": "positionY",
              "type": "uint256"
            },
            {
              "internalType": "bool",
              "name": "isActive",
              "type": "bool"
            }
          ],
          "indexed": false,
          "internalType": "struct BigSky.StarData[]",
          "name": "_stars",
          "type": "tuple[]"
        }
      ],
      "name": "StarLocations",
      "type": "event"
    },
    {
      "anonymous": false,
      "inputs": [
        {
          "indexed": false,
          "internalType": "uint256",
          "name": "turn",
          "type": "uint256"
        },
        {
          "indexed": false,
          "internalType": "uint256",
          "name": "playerScore",
          "type": "uint256"
        },
        {
          "components": [
            {
              "internalType": "uint256",
              "name": "positionX",
              "type": "uint256"
            },
            {
              "internalType": "uint256",
              "name": "positionY",
              "type": "uint256"
            },
            {
              "internalType": "contract Ship",
              "name": "ship",
              "type": "address"
            }
          ],
          "indexed": false,
          "internalType": "struct BigSky.ShipData",
          "name": "ship",
          "type": "tuple"
        },
        {
          "components": [
            {
              "internalType": "uint256",
              "name": "positionX",
              "type": "uint256"
            },
            {
              "internalType": "uint256",
              "name": "positionY",
              "type": "uint256"
            }
          ],
          "indexed": false,
          "internalType": "struct BigSky.EnemyData[]",
          "name": "enemies",
          "type": "tuple[]"
        },
        {
          "components": [
            {
              "internalType": "uint256",
              "name": "positionX",
              "type": "uint256"
            },
            {
              "internalType": "uint256",
              "name": "positionY",
              "type": "uint256"
            },
            {
              "internalType": "bool",
              "name": "isActive",
              "type": "bool"
            }
          ],
          "indexed": false,
          "internalType": "struct BigSky.StarData[]",
          "name": "allStars",
          "type": "tuple[]"
        }
      ],
      "name": "TurnComplete",
      "type": "event"
    },
    {
      "inputs": [
        {
          "internalType": "uint256",
          "name": "",
          "type": "uint256"
        }
      ],
      "name": "enemies",
      "outputs": [
        {
          "internalType": "uint256",
          "name": "positionX",
          "type": "uint256"
        },
        {
          "internalType": "uint256",
          "name": "positionY",
          "type": "uint256"
        }
      ],
      "stateMutability": "view",
      "type": "function"
    },
    {
      "inputs": [],
      "name": "entropy",
      "outputs": [
        {
          "internalType": "uint72",
          "name": "",
          "type": "uint72"
        }
      ],
      "stateMutability": "view",
      "type": "function"
    },
    {
      "inputs": [
        {
          "internalType": "contract Ship",
          "name": "",
          "type": "address"
        }
      ],
      "name": "getShipData",
      "outputs": [
        {
          "internalType": "uint256",
          "name": "positionX",
          "type": "uint256"
        },
        {
          "internalType": "uint256",
          "name": "positionY",
          "type": "uint256"
        },
        {
          "internalType": "contract Ship",
          "name": "ship",
          "type": "address"
        }
      ],
      "stateMutability": "view",
      "type": "function"
    },
    {
      "inputs": [
        {
          "internalType": "uint72",
          "name": "_gridX",
          "type": "uint72"
        },
        {
          "internalType": "uint72",
          "name": "_gridY",
          "type": "uint72"
        }
      ],
      "name": "playerJump",
      "outputs": [],
      "stateMutability": "nonpayable",
      "type": "function"
    },
    {
      "inputs": [
        {
          "internalType": "uint8",
          "name": "_move",
          "type": "uint8"
        }
      ],
      "name": "playerMove",
      "outputs": [],
      "stateMutability": "nonpayable",
      "type": "function"
    },
    {
      "inputs": [],
      "name": "playerScore",
      "outputs": [
        {
          "internalType": "uint256",
          "name": "",
          "type": "uint256"
        }
      ],
      "stateMutability": "view",
      "type": "function"
    },
    {
      "inputs": [
        {
          "internalType": "contract Ship",
          "name": "ship",
          "type": "address"
        }
      ],
      "name": "registerPlayer",
      "outputs": [],
      "stateMutability": "nonpayable",
      "type": "function"
    },
    {
      "inputs": [
        {
          "internalType": "uint256",
          "name": "",
          "type": "uint256"
        }
      ],
      "name": "ships",
      "outputs": [
        {
          "internalType": "contract Ship",
          "name": "",
          "type": "address"
        }
      ],
      "stateMutability": "view",
      "type": "function"
    },
    {
      "inputs": [
        {
          "internalType": "uint256",
          "name": "",
          "type": "uint256"
        }
      ],
      "name": "stars",
      "outputs": [
        {
          "internalType": "uint256",
          "name": "positionX",
          "type": "uint256"
        },
        {
          "internalType": "uint256",
          "name": "positionY",
          "type": "uint256"
        },
        {
          "internalType": "bool",
          "name": "isActive",
          "type": "bool"
        }
      ],
      "stateMutability": "view",
      "type": "function"
    },
    {
      "inputs": [],
      "name": "startGame",
      "outputs": [],
      "stateMutability": "nonpayable",
      "type": "function"
    },
    {
      "inputs": [],
      "name": "state",
      "outputs": [
        {
          "internalType": "enum BigSky.State",
          "name": "",
          "type": "uint8"
        }
      ],
      "stateMutability": "view",
      "type": "function"
    },
    {
      "inputs": [],
      "name": "turn",
      "outputs": [
        {
          "internalType": "uint72",
          "name": "",
          "type": "uint72"
        }
      ],
      "stateMutability": "view",
      "type": "function"
    }
  ],
  "bytecode": {
    "object": "0x60a060405260008054600160501b600160981b0319166a0a0000000000000000000017905534801561003057600080fd5b503360805260805161159f61004d6000396000505061159f6000f3fe608060405234801561001057600080fd5b50600436106100b45760003560e01c80636b5cc6d9116100715780636b5cc6d91461019d5780637d7cb1e2146101b057806388cc49371461020c5780638b2999031461021f578063c19d93fb14610239578063d65ab5f21461025357600080fd5b806307a88fef146100b957806347ce07cc146100d557806349103c9e146101055780634d4e8dfa1461011a5780635434198014610145578063685c63421461016d575b600080fd5b6100c260015481565b6040519081526020015b60405180910390f35b6000546100ed9061010090046001600160481b031681565b6040516001600160481b0390911681526020016100cc565b6101186101133660046111e2565b61025b565b005b61012d610128366004611215565b610340565b6040516001600160a01b0390911681526020016100cc565b610158610153366004611215565b61036a565b604080519283526020830191909152016100cc565b61018061017b366004611215565b610398565b6040805193845260208401929092521515908201526060016100cc565b6101186101ab36600461122e565b6103ce565b6101e86101be36600461122e565b6003602052600090815260409020805460018201546002909201549091906001600160a01b031683565b6040805193845260208401929092526001600160a01b0316908201526060016100cc565b61011861021a36600461125e565b610554565b6000546100ed90600160501b90046001600160481b031681565b6000546102469060ff1681565b6040516100cc9190611297565b6101186106b3565b336000908152600360205260409020600c6001600160481b03841610801561028c57506000836001600160481b0316115b6102cc5760405162461bcd60e51b815260206004820152600c60248201526b6f7574206f722072616e676560a01b60448201526064015b60405180910390fd5b6012826001600160481b03161080156102ee57506000826001600160481b0316115b6103295760405162461bcd60e51b815260206004820152600c60248201526b6f7574206f662072616e676560a01b60448201526064016102c3565b6001600160481b0392831681559116600190910155565b6002818154811061035057600080fd5b6000918252602090912001546001600160a01b0316905081565b6004818154811061037a57600080fd5b60009182526020909120600290910201805460019091015490915082565b600581815481106103a857600080fd5b600091825260209091206003909102018054600182015460029092015490925060ff1683565b6001600160a01b03818116600090815260036020526040902060020154161561042b5760405162461bcd60e51b815260206004820152600f60248201526e2227aaa12622afa922a3a4a9aa22a960891b60448201526064016102c3565b6000805460ff191680825561044d9061010090046001600160481b031661072d565b600080549192509061046c9061010090046001600160481b0316610788565b6040805160608101825284815260208082018481526001600160a01b0380891684860181815260008281526003909552868520955186559251600180870191909155925160029586018054919093166001600160a01b031991821617909255845492830185559383527f405787fa12a823e0f2b7631cc41b3ba8828b3321ca811111fa75cd3aa3bb5ace90910180549091168317905580546001600160481b0342166101000269ffffffffffffffffff00199091161781559151929350917ffecbdcf0a9f4ce48cf08b8ced4541e16ef602449e114d2a90954fbcb0648a472908290a3505050565b3360009081526003602052604081209060ff831690036105be5760118160010154600161058191906112d5565b1061059e5760405162461bcd60e51b81526004016102c3906112ed565b60018160010160008282546105b391906112d5565b909155506106af9050565b8160ff1660010361060e576000600182600101546105dc919061130c565b116105f95760405162461bcd60e51b81526004016102c3906112ed565b60018160010160008282546105b3919061130c565b8160ff1660020361065c57805460009061062a9060019061130c565b116106475760405162461bcd60e51b81526004016102c3906112ed565b60018160000160008282546105b391906112d5565b8160ff166003036106af578054600c906106779060016112d5565b106106945760405162461bcd60e51b81526004016102c3906112ed565b60018160000160008282546106a9919061130c565b90915550505b5050565b6000805460ff191660011790556106c86107a8565b6106d061087c565b6000546106ec90600160501b90046001600160481b03166109bd565b6000546040517f13cb55fc1bec4b9f4cd4c22f154240b469cb108a23a35aa599df0c3da46f2d14916107239160ff90911690611297565b60405180910390a1565b60008054600c9061074d90849061010090046001600160481b0316611323565b60405160200161075f91815260200190565b6040516020818303038152906040528051906020012060001c6107829190611358565b92915050565b6000805460119061074d90849061010090046001600160481b0316611323565b6000806107c8604051806040016040528060008152602001600081525090565b60005b6003811015610876576107dd8161072d565b93506107e881610788565b60408051808201909152858152602081018281526004805460018101825560009190915282517f8a35acfbc15ff81a39ae7d344fd709f28e8600b4aa8c65c6b64bfe7fe36bd19b60029092029182015590517f8a35acfbc15ff81a39ae7d344fd709f28e8600b4aa8c65c6b64bfe7fe36bd19c9091015590935091508061086e8161136c565b9150506107cb565b50505050565b60408051606081018252600080825260208201819052918101829052819060005b600f811161097f576108ae8161072d565b93506108b981610788565b6040805160608101825286815260208101838152600192820183815260058054948501815560005282517f036b6384b5eca791c62761152d0c79bb0604c104a5fb6f4eb0703f3154bb3db060039095029485015590517f036b6384b5eca791c62761152d0c79bb0604c104a5fb6f4eb0703f3154bb3db1840155517f036b6384b5eca791c62761152d0c79bb0604c104a5fb6f4eb0703f3154bb3db2909201805460ff1916921515929092179091559093509150806109778161136c565b91505061089d565b507f2b1c014895f9e91ba2f05abb072bbf0edda4c8d20a06f5812b98918bd6dff5af60056040516109b09190611385565b60405180910390a1505050565b600160005460ff1660028111156109d6576109d6611281565b14610a155760405162461bcd60e51b815260206004820152600f60248201526e47414d45204e4f542041435449564560881b60448201526064016102c3565b8015610cc95760006002805480602002602001604051908101604052809291908181526020018280548015610a7357602002820191906000526020600020905b81546001600160a01b03168152600190910190602001808311610a55575b5050505050905060006004805480602002602001604051908101604052809291908181526020016000905b82821015610ae457838290600052602060002090600202016040518060400160405290816000820154815260200160018201548152505081526020019060010190610a9e565b50505050905060006005805480602002602001604051908101604052809291908181526020016000905b82821015610b5f5760008481526020908190206040805160608101825260038602909201805483526001808201548486015260029091015460ff161515918301919091529083529092019101610b0e565b5050600080549394508793909250869150610b8c90600190600160501b90046001600160481b03166113ec565b6001600160481b031681518110610ba557610ba5611412565b6020908102919091018101516001600160a01b0380821660008181526003855260409081902081516060810183528154815260018201549681019690965260020154909216848301529051631f05434b60e11b815291935090633e0a869690610c14908490889060040161147b565b600060405180830381600087803b158015610c2e57600080fd5b505af1158015610c42573d6000803e3d6000fd5b50505050610c4f83610ccc565b610c5882610f55565b6001546001600160a01b0383166000908152600360205260409081902090517f3fd5496bbd622daa43ed229fd32cc58a5f2298674a8bd3225ca2cabaa302a3bc92610ca89287928a908a906114b9565b60405180910390a15050505050508080610cc190611552565b915050610a15565b50565b60008054600490610cec90849061010090046001600160481b0316611323565b604051602001610cfe91815260200190565b6040516020818303038152906040528051906020012060001c610d219190611358565b905060005b600454811015610f5057600060048281548110610d4557610d45611412565b9060005260206000209060020201600001549050600060048381548110610d6e57610d6e611412565b906000526020600020906002020160010154905083600003610df757601260048481548110610d9f57610d9f611412565b9060005260206000209060020201600001541015610df257600160048481548110610dcc57610dcc611412565b90600052602060002090600202016000016000828254610dec91906112d5565b90915550505b610f3b565b83600103610e6157600060048481548110610e1457610e14611412565b9060005260206000209060020201600001541115610df257600160048481548110610e4157610e41611412565b90600052602060002090600202016000016000828254610dec919061130c565b83600203610ecb57600c60048481548110610e7e57610e7e611412565b9060005260206000209060020201600101541015610df257600160048481548110610eab57610eab611412565b90600052602060002090600202016001016000828254610dec91906112d5565b83600303610f3b57600060048481548110610ee857610ee8611412565b9060005260206000209060020201600101541115610f3b57600160048481548110610f1557610f15611412565b90600052602060002090600202016001016000828254610f35919061130c565b90915550505b50508080610f489061136c565b915050610d26565b505050565b600160005460ff166002811115610f6e57610f6e611281565b14610fad5760405162461bcd60e51b815260206004820152600f60248201526e47414d45204e4f542041435449564560881b60448201526064016102c3565b6001600160a01b03808216600090815260036020908152604080832081516060810183528154815260018201549381019390935260020154909316928101929092525b600454811015611086578151600480548390811061101057611010611412565b906000526020600020906002020160000154148015611056575081602001516004828154811061104257611042611412565b906000526020600020906002020160010154145b156110745760056001600082825461106e919061130c565b90915550505b8061107e8161136c565b915050610ff0565b5060005b600554811015610f5057815160058054839081106110aa576110aa611412565b9060005260206000209060030201600001541480156110f057508160200151600582815481106110dc576110dc611412565b906000526020600020906003020160010154145b801561112757506005818154811061110a5761110a611412565b600091825260209091206002600390920201015460ff1615156001145b156111b45760056001600082825461113f91906112d5565b9250508190555060006005828154811061115b5761115b611412565b6000918252602091829020600390910201600201805460ff1916921515929092179091556001546040519081527f800be03d4293ad87f648064dfbd4d2ceb0065c476f6781930a7466a80e577ad0910160405180910390a15b806111be8161136c565b91505061108a565b80356001600160481b03811681146111dd57600080fd5b919050565b600080604083850312156111f557600080fd5b6111fe836111c6565b915061120c602084016111c6565b90509250929050565b60006020828403121561122757600080fd5b5035919050565b60006020828403121561124057600080fd5b81356001600160a01b038116811461125757600080fd5b9392505050565b60006020828403121561127057600080fd5b813560ff8116811461125757600080fd5b634e487b7160e01b600052602160045260246000fd5b60208101600383106112b957634e487b7160e01b600052602160045260246000fd5b91905290565b634e487b7160e01b600052601160045260246000fd5b600082198211156112e8576112e86112bf565b500190565b60208082526005908201526432b93937b960d91b604082015260600190565b60008282101561131e5761131e6112bf565b500390565b600081600019048311821515161561133d5761133d6112bf565b500290565b634e487b7160e01b600052601260045260246000fd5b60008261136757611367611342565b500690565b60006001820161137e5761137e6112bf565b5060010190565b60006020808301818452808554808352604092508286019150866000528360002060005b828110156113df578154845260018083015487860152600283015460ff16151586860152606090940193600390920191016113a9565b5091979650505050505050565b60006001600160481b038084168061140657611406611342565b92169190910692915050565b634e487b7160e01b600052603260045260246000fd5b600081518084526020808501945080840160005b838110156114705781518051885283810151848901526040908101511515908801526060909601959082019060010161143c565b509495945050505050565b825181526020830151602082015260018060a01b0360408401511660408201526080606082015260006114b16080830184611428565b949350505050565b600060e08201878352602087818501526040875481860152600180890154606087015260018060a01b0360028a015416608087015260e060a087015283885180865261010088019150848a01955060005b8181101561152e57865180518452860151868401529585019591840191830161150a565b505086810360c08801526115428189611428565b9c9b505050505050505050505050565b600081611561576115616112bf565b50600019019056fea26469706673582212206604c434e71a1f59a15fdb250cb86e26f2f772bc4263cfcd8f7cfdf81eff90de64736f6c634300080d0033",
    "linkReferences": {}
  },
  "methodIdentifiers": {
    "enemies(uint256)": "54341980",
    "entropy()": "47ce07cc",
    "getShipData(address)": "7d7cb1e2",
    "playerJump(uint72,uint72)": "49103c9e",
    "playerMove(uint8)": "88cc4937",
    "playerScore()": "07a88fef",
    "registerPlayer(address)": "6b5cc6d9",
    "ships(uint256)": "4d4e8dfa",
    "stars(uint256)": "685c6342",
    "startGame()": "d65ab5f2",
    "state()": "c19d93fb",
    "turn()": "8b299903"
  },
  "id": 15
}