{
  "abi": [
    {
      "inputs": [],
      "stateMutability": "nonpayable",
      "type": "constructor"
    },
    {
      "anonymous": false,
      "inputs": [
        {
          "indexed": false,
          "internalType": "enum BigSky.State",
          "name": "state",
          "type": "uint8"
        }
      ],
      "name": "GameComplete",
      "type": "event"
    },
    {
      "anonymous": false,
      "inputs": [
        {
          "indexed": false,
          "internalType": "enum BigSky.State",
          "name": "state",
          "type": "uint8"
        }
      ],
      "name": "GameStarted",
      "type": "event"
    },
    {
      "anonymous": false,
      "inputs": [
        {
          "indexed": true,
          "internalType": "uint256",
          "name": "turn",
          "type": "uint256"
        },
        {
          "indexed": true,
          "internalType": "contract Ship",
          "name": "ship",
          "type": "address"
        }
      ],
      "name": "ShipRegistered",
      "type": "event"
    },
    {
      "anonymous": false,
      "inputs": [
        {
          "indexed": false,
          "internalType": "uint256",
          "name": "playerScore",
          "type": "uint256"
        }
      ],
      "name": "StarCaptured",
      "type": "event"
    },
    {
      "anonymous": false,
      "inputs": [
        {
          "components": [
            {
              "internalType": "uint256",
              "name": "positionX",
              "type": "uint256"
            },
            {
              "internalType": "uint256",
              "name": "positionY",
              "type": "uint256"
            },
            {
              "internalType": "bool",
              "name": "isActive",
              "type": "bool"
            }
          ],
          "indexed": false,
          "internalType": "struct BigSky.StarData[]",
          "name": "_stars",
          "type": "tuple[]"
        }
      ],
      "name": "StarLocations",
      "type": "event"
    },
    {
      "anonymous": false,
      "inputs": [
        {
          "indexed": false,
          "internalType": "uint256",
          "name": "turn",
          "type": "uint256"
        },
        {
          "indexed": false,
          "internalType": "uint256",
          "name": "playerScore",
          "type": "uint256"
        },
        {
          "components": [
            {
              "internalType": "uint256",
              "name": "positionX",
              "type": "uint256"
            },
            {
              "internalType": "uint256",
              "name": "positionY",
              "type": "uint256"
            },
            {
              "internalType": "contract Ship",
              "name": "ship",
              "type": "address"
            }
          ],
          "indexed": false,
          "internalType": "struct BigSky.ShipData",
          "name": "ship",
          "type": "tuple"
        },
        {
          "components": [
            {
              "internalType": "uint256",
              "name": "positionX",
              "type": "uint256"
            },
            {
              "internalType": "uint256",
              "name": "positionY",
              "type": "uint256"
            }
          ],
          "indexed": false,
          "internalType": "struct BigSky.EnemyData[]",
          "name": "enemies",
          "type": "tuple[]"
        },
        {
          "components": [
            {
              "internalType": "uint256",
              "name": "positionX",
              "type": "uint256"
            },
            {
              "internalType": "uint256",
              "name": "positionY",
              "type": "uint256"
            },
            {
              "internalType": "bool",
              "name": "isActive",
              "type": "bool"
            }
          ],
          "indexed": false,
          "internalType": "struct BigSky.StarData[]",
          "name": "allStars",
          "type": "tuple[]"
        }
      ],
      "name": "TurnComplete",
      "type": "event"
    },
    {
      "inputs": [
        {
          "internalType": "uint256",
          "name": "",
          "type": "uint256"
        }
      ],
      "name": "enemies",
      "outputs": [
        {
          "internalType": "uint256",
          "name": "positionX",
          "type": "uint256"
        },
        {
          "internalType": "uint256",
          "name": "positionY",
          "type": "uint256"
        }
      ],
      "stateMutability": "view",
      "type": "function"
    },
    {
      "inputs": [],
      "name": "entropy",
      "outputs": [
        {
          "internalType": "uint72",
          "name": "",
          "type": "uint72"
        }
      ],
      "stateMutability": "view",
      "type": "function"
    },
    {
      "inputs": [
        {
          "internalType": "contract Ship",
          "name": "",
          "type": "address"
        }
      ],
      "name": "getShipData",
      "outputs": [
        {
          "internalType": "uint256",
          "name": "positionX",
          "type": "uint256"
        },
        {
          "internalType": "uint256",
          "name": "positionY",
          "type": "uint256"
        },
        {
          "internalType": "contract Ship",
          "name": "ship",
          "type": "address"
        }
      ],
      "stateMutability": "view",
      "type": "function"
    },
    {
      "inputs": [
        {
          "internalType": "contract Ship",
          "name": "ship",
          "type": "address"
        }
      ],
      "name": "launchShip",
      "outputs": [],
      "stateMutability": "nonpayable",
      "type": "function"
    },
    {
      "inputs": [
        {
          "internalType": "uint72",
          "name": "_gridX",
          "type": "uint72"
        },
        {
          "internalType": "uint72",
          "name": "_gridY",
          "type": "uint72"
        }
      ],
      "name": "playerJump",
      "outputs": [],
      "stateMutability": "nonpayable",
      "type": "function"
    },
    {
      "inputs": [
        {
          "internalType": "uint8",
          "name": "_move",
          "type": "uint8"
        }
      ],
      "name": "playerMove",
      "outputs": [],
      "stateMutability": "nonpayable",
      "type": "function"
    },
    {
      "inputs": [],
      "name": "playerScore",
      "outputs": [
        {
          "internalType": "uint256",
          "name": "",
          "type": "uint256"
        }
      ],
      "stateMutability": "view",
      "type": "function"
    },
    {
      "inputs": [
        {
          "internalType": "uint256",
          "name": "",
          "type": "uint256"
        }
      ],
      "name": "ships",
      "outputs": [
        {
          "internalType": "contract Ship",
          "name": "",
          "type": "address"
        }
      ],
      "stateMutability": "view",
      "type": "function"
    },
    {
      "inputs": [
        {
          "internalType": "uint256",
          "name": "",
          "type": "uint256"
        }
      ],
      "name": "stars",
      "outputs": [
        {
          "internalType": "uint256",
          "name": "positionX",
          "type": "uint256"
        },
        {
          "internalType": "uint256",
          "name": "positionY",
          "type": "uint256"
        },
        {
          "internalType": "bool",
          "name": "isActive",
          "type": "bool"
        }
      ],
      "stateMutability": "view",
      "type": "function"
    },
    {
      "inputs": [],
      "name": "state",
      "outputs": [
        {
          "internalType": "enum BigSky.State",
          "name": "",
          "type": "uint8"
        }
      ],
      "stateMutability": "view",
      "type": "function"
    },
    {
      "inputs": [],
      "name": "turn",
      "outputs": [
        {
          "internalType": "uint72",
          "name": "",
          "type": "uint72"
        }
      ],
      "stateMutability": "view",
      "type": "function"
    }
  ],
  "bytecode": {
    "object": "0x60a060405260008054600160501b600160981b0319166a0a0000000000000000000017905534801561003057600080fd5b50336080526080516115ad61004d600039600050506115ad6000f3fe608060405234801561001057600080fd5b50600436106100a95760003560e01c8063685c634211610071578063685c6342146101625780637d7cb1e21461019257806388cc4937146101ee5780638b29990314610201578063b9c1d5021461021b578063c19d93fb1461022e57600080fd5b806307a88fef146100ae57806347ce07cc146100ca57806349103c9e146100fa5780634d4e8dfa1461010f578063543419801461013a575b600080fd5b6100b760015481565b6040519081526020015b60405180910390f35b6000546100e29061010090046001600160481b031681565b6040516001600160481b0390911681526020016100c1565b61010d6101083660046111f0565b610248565b005b61012261011d366004611223565b61032d565b6040516001600160a01b0390911681526020016100c1565b61014d610148366004611223565b610357565b604080519283526020830191909152016100c1565b610175610170366004611223565b610385565b6040805193845260208401929092521515908201526060016100c1565b6101ca6101a036600461123c565b6003602052600090815260409020805460018201546002909201549091906001600160a01b031683565b6040805193845260208401929092526001600160a01b0316908201526060016100c1565b61010d6101fc36600461126c565b6103bb565b6000546100e290600160501b90046001600160481b031681565b61010d61022936600461123c565b61051a565b60005461023b9060ff1681565b6040516100c191906112a5565b336000908152600360205260409020600c6001600160481b03841610801561027957506000836001600160481b0316115b6102b95760405162461bcd60e51b815260206004820152600c60248201526b6f7574206f722072616e676560a01b60448201526064015b60405180910390fd5b6012826001600160481b03161080156102db57506000826001600160481b0316115b6103165760405162461bcd60e51b815260206004820152600c60248201526b6f7574206f662072616e676560a01b60448201526064016102b0565b6001600160481b0392831681559116600190910155565b6002818154811061033d57600080fd5b6000918252602090912001546001600160a01b0316905081565b6004818154811061036757600080fd5b60009182526020909120600290910201805460019091015490915082565b6005818154811061039557600080fd5b600091825260209091206003909102018054600182015460029092015490925060ff1683565b3360009081526003602052604081209060ff83169003610425576011816001015460016103e891906112e3565b106104055760405162461bcd60e51b81526004016102b0906112fb565b600181600101600082825461041a91906112e3565b909155506105169050565b8160ff1660010361047557600060018260010154610443919061131a565b116104605760405162461bcd60e51b81526004016102b0906112fb565b600181600101600082825461041a919061131a565b8160ff166002036104c35780546000906104919060019061131a565b116104ae5760405162461bcd60e51b81526004016102b0906112fb565b600181600001600082825461041a91906112e3565b8160ff16600303610516578054600c906104de9060016112e3565b106104fb5760405162461bcd60e51b81526004016102b0906112fb565b6001816000016000828254610510919061131a565b90915550505b5050565b6001600160a01b0381811660009081526003602052604090206002015416156105775760405162461bcd60e51b815260206004820152600f60248201526e2227aaa12622afa922a3a4a9aa22a960891b60448201526064016102b0565b6000805460ff19168082556105999061010090046001600160481b0316610680565b60008054919250906105b89061010090046001600160481b03166106db565b6040805160608101825284815260208082018481526001600160a01b0380891684860181815260008281526003909552958420945185559151600180860191909155945160029485018054919092166001600160a01b031991821617909155835494850184559282527f405787fa12a823e0f2b7631cc41b3ba8828b3321ca811111fa75cd3aa3bb5ace9093018054909216909217905580546001600160481b0342166101000269ffffffffffffffffff0019909116179055905061067b6106fb565b505050565b60008054600c906106a090849061010090046001600160481b0316611331565b6040516020016106b291815260200190565b6040516020818303038152906040528051906020012060001c6106d59190611366565b92915050565b600080546011906106a090849061010090046001600160481b0316611331565b6000805460ff19166001179055610710610775565b610718610849565b60005461073490600160501b90046001600160481b031661098a565b6000546040517f13cb55fc1bec4b9f4cd4c22f154240b469cb108a23a35aa599df0c3da46f2d149161076b9160ff909116906112a5565b60405180910390a1565b600080610795604051806040016040528060008152602001600081525090565b60005b6003811015610843576107aa81610680565b93506107b5816106db565b60408051808201909152858152602081018281526004805460018101825560009190915282517f8a35acfbc15ff81a39ae7d344fd709f28e8600b4aa8c65c6b64bfe7fe36bd19b60029092029182015590517f8a35acfbc15ff81a39ae7d344fd709f28e8600b4aa8c65c6b64bfe7fe36bd19c9091015590935091508061083b8161137a565b915050610798565b50505050565b60408051606081018252600080825260208201819052918101829052819060005b600f811161094c5761087b81610680565b9350610886816106db565b6040805160608101825286815260208101838152600192820183815260058054948501815560005282517f036b6384b5eca791c62761152d0c79bb0604c104a5fb6f4eb0703f3154bb3db060039095029485015590517f036b6384b5eca791c62761152d0c79bb0604c104a5fb6f4eb0703f3154bb3db1840155517f036b6384b5eca791c62761152d0c79bb0604c104a5fb6f4eb0703f3154bb3db2909201805460ff1916921515929092179091559093509150806109448161137a565b91505061086a565b507f2b1c014895f9e91ba2f05abb072bbf0edda4c8d20a06f5812b98918bd6dff5af600560405161097d9190611393565b60405180910390a1505050565b600160005460ff1660028111156109a3576109a361128f565b146109e25760405162461bcd60e51b815260206004820152600f60248201526e47414d45204e4f542041435449564560881b60448201526064016102b0565b8015610c965760006002805480602002602001604051908101604052809291908181526020018280548015610a4057602002820191906000526020600020905b81546001600160a01b03168152600190910190602001808311610a22575b5050505050905060006004805480602002602001604051908101604052809291908181526020016000905b82821015610ab157838290600052602060002090600202016040518060400160405290816000820154815260200160018201548152505081526020019060010190610a6b565b50505050905060006005805480602002602001604051908101604052809291908181526020016000905b82821015610b2c5760008481526020908190206040805160608101825260038602909201805483526001808201548486015260029091015460ff161515918301919091529083529092019101610adb565b5050600080549394508793909250869150610b5990600190600160501b90046001600160481b03166113fa565b6001600160481b031681518110610b7257610b72611420565b6020908102919091018101516001600160a01b0380821660008181526003855260409081902081516060810183528154815260018201549681019690965260020154909216848301529051631f05434b60e11b815291935090633e0a869690610be19084908890600401611489565b600060405180830381600087803b158015610bfb57600080fd5b505af1158015610c0f573d6000803e3d6000fd5b50505050610c1c83610cdf565b610c2582610f63565b6001546001600160a01b0383166000908152600360205260409081902090517f3fd5496bbd622daa43ed229fd32cc58a5f2298674a8bd3225ca2cabaa302a3bc92610c759287928a908a906114c7565b60405180910390a15050505050508080610c8e90611560565b9150506109e2565b6000805460ff191660029081179091556040517fba86e2baf8189f5f75fb89182ac92a9385d07e3eb0a5edc2d8542104a15d092d91610cd4916112a5565b60405180910390a150565b60008054600490610cff90849061010090046001600160481b0316611331565b604051602001610d1191815260200190565b6040516020818303038152906040528051906020012060001c610d349190611366565b905060005b60045481101561067b57600060048281548110610d5857610d58611420565b9060005260206000209060020201600001549050600060048381548110610d8157610d81611420565b906000526020600020906002020160010154905083600003610e0a57601260048481548110610db257610db2611420565b9060005260206000209060020201600001541015610e0557600160048481548110610ddf57610ddf611420565b90600052602060002090600202016000016000828254610dff91906112e3565b90915550505b610f4e565b83600103610e7457600060048481548110610e2757610e27611420565b9060005260206000209060020201600001541115610e0557600160048481548110610e5457610e54611420565b90600052602060002090600202016000016000828254610dff919061131a565b83600203610ede57600c60048481548110610e9157610e91611420565b9060005260206000209060020201600101541015610e0557600160048481548110610ebe57610ebe611420565b90600052602060002090600202016001016000828254610dff91906112e3565b83600303610f4e57600060048481548110610efb57610efb611420565b9060005260206000209060020201600101541115610f4e57600160048481548110610f2857610f28611420565b90600052602060002090600202016001016000828254610f48919061131a565b90915550505b50508080610f5b9061137a565b915050610d39565b600160005460ff166002811115610f7c57610f7c61128f565b14610fbb5760405162461bcd60e51b815260206004820152600f60248201526e47414d45204e4f542041435449564560881b60448201526064016102b0565b6001600160a01b03808216600090815260036020908152604080832081516060810183528154815260018201549381019390935260020154909316928101929092525b600454811015611094578151600480548390811061101e5761101e611420565b906000526020600020906002020160000154148015611064575081602001516004828154811061105057611050611420565b906000526020600020906002020160010154145b156110825760056001600082825461107c919061131a565b90915550505b8061108c8161137a565b915050610ffe565b5060005b60055481101561067b57815160058054839081106110b8576110b8611420565b9060005260206000209060030201600001541480156110fe57508160200151600582815481106110ea576110ea611420565b906000526020600020906003020160010154145b801561113557506005818154811061111857611118611420565b600091825260209091206002600390920201015460ff1615156001145b156111c25760056001600082825461114d91906112e3565b9250508190555060006005828154811061116957611169611420565b6000918252602091829020600390910201600201805460ff1916921515929092179091556001546040519081527f800be03d4293ad87f648064dfbd4d2ceb0065c476f6781930a7466a80e577ad0910160405180910390a15b806111cc8161137a565b915050611098565b80356001600160481b03811681146111eb57600080fd5b919050565b6000806040838503121561120357600080fd5b61120c836111d4565b915061121a602084016111d4565b90509250929050565b60006020828403121561123557600080fd5b5035919050565b60006020828403121561124e57600080fd5b81356001600160a01b038116811461126557600080fd5b9392505050565b60006020828403121561127e57600080fd5b813560ff8116811461126557600080fd5b634e487b7160e01b600052602160045260246000fd5b60208101600383106112c757634e487b7160e01b600052602160045260246000fd5b91905290565b634e487b7160e01b600052601160045260246000fd5b600082198211156112f6576112f66112cd565b500190565b60208082526005908201526432b93937b960d91b604082015260600190565b60008282101561132c5761132c6112cd565b500390565b600081600019048311821515161561134b5761134b6112cd565b500290565b634e487b7160e01b600052601260045260246000fd5b60008261137557611375611350565b500690565b60006001820161138c5761138c6112cd565b5060010190565b60006020808301818452808554808352604092508286019150866000528360002060005b828110156113ed578154845260018083015487860152600283015460ff16151586860152606090940193600390920191016113b7565b5091979650505050505050565b60006001600160481b038084168061141457611414611350565b92169190910692915050565b634e487b7160e01b600052603260045260246000fd5b600081518084526020808501945080840160005b8381101561147e5781518051885283810151848901526040908101511515908801526060909601959082019060010161144a565b509495945050505050565b825181526020830151602082015260018060a01b0360408401511660408201526080606082015260006114bf6080830184611436565b949350505050565b600060e08201878352602087818501526040875481860152600180890154606087015260018060a01b0360028a015416608087015260e060a087015283885180865261010088019150848a01955060005b8181101561153c578651805184528601518684015295850195918401918301611518565b505086810360c08801526115508189611436565b9c9b505050505050505050505050565b60008161156f5761156f6112cd565b50600019019056fea26469706673582212205e4f19205bea15372b1cc24b28cb4c9558f87c134ba8a163ed5b701b772cb6ce64736f6c634300080d0033",
    "linkReferences": {}
  },
  "methodIdentifiers": {
    "enemies(uint256)": "54341980",
    "entropy()": "47ce07cc",
    "getShipData(address)": "7d7cb1e2",
    "launchShip(address)": "b9c1d502",
    "playerJump(uint72,uint72)": "49103c9e",
    "playerMove(uint8)": "88cc4937",
    "playerScore()": "07a88fef",
    "ships(uint256)": "4d4e8dfa",
    "stars(uint256)": "685c6342",
    "state()": "c19d93fb",
    "turn()": "8b299903"
  },
  "id": 15
}