{
  "abi": [
    {
      "inputs": [],
      "stateMutability": "nonpayable",
      "type": "constructor"
    },
    {
      "anonymous": false,
      "inputs": [
        {
          "indexed": false,
          "internalType": "enum BigSky.State",
          "name": "state",
          "type": "uint8"
        }
      ],
      "name": "GameStarted",
      "type": "event"
    },
    {
      "anonymous": false,
      "inputs": [
        {
          "indexed": false,
          "internalType": "uint256",
          "name": "_positionX",
          "type": "uint256"
        },
        {
          "indexed": false,
          "internalType": "uint256",
          "name": "_positionyY",
          "type": "uint256"
        }
      ],
      "name": "PlayerMove",
      "type": "event"
    },
    {
      "anonymous": false,
      "inputs": [
        {
          "indexed": true,
          "internalType": "uint256",
          "name": "turn",
          "type": "uint256"
        },
        {
          "indexed": true,
          "internalType": "contract Ship",
          "name": "ship",
          "type": "address"
        }
      ],
      "name": "ShipRegistered",
      "type": "event"
    },
    {
      "anonymous": false,
      "inputs": [
        {
          "components": [
            {
              "internalType": "uint256",
              "name": "positionX",
              "type": "uint256"
            },
            {
              "internalType": "uint256",
              "name": "positionY",
              "type": "uint256"
            }
          ],
          "indexed": false,
          "internalType": "struct BigSky.StarData[]",
          "name": "_stars",
          "type": "tuple[]"
        }
      ],
      "name": "StarLocations",
      "type": "event"
    },
    {
      "anonymous": false,
      "inputs": [
        {
          "indexed": false,
          "internalType": "uint256",
          "name": "_turn",
          "type": "uint256"
        },
        {
          "components": [
            {
              "internalType": "uint256",
              "name": "positionX",
              "type": "uint256"
            },
            {
              "internalType": "uint256",
              "name": "positionY",
              "type": "uint256"
            },
            {
              "internalType": "contract Ship",
              "name": "ship",
              "type": "address"
            }
          ],
          "indexed": false,
          "internalType": "struct BigSky.ShipData",
          "name": "ship",
          "type": "tuple"
        },
        {
          "components": [
            {
              "internalType": "uint256",
              "name": "positionX",
              "type": "uint256"
            },
            {
              "internalType": "uint256",
              "name": "positionY",
              "type": "uint256"
            }
          ],
          "indexed": false,
          "internalType": "struct BigSky.EnemyData[]",
          "name": "_enemies",
          "type": "tuple[]"
        }
      ],
      "name": "TurnComplete",
      "type": "event"
    },
    {
      "inputs": [
        {
          "internalType": "uint256",
          "name": "",
          "type": "uint256"
        }
      ],
      "name": "enemies",
      "outputs": [
        {
          "internalType": "uint256",
          "name": "positionX",
          "type": "uint256"
        },
        {
          "internalType": "uint256",
          "name": "positionY",
          "type": "uint256"
        }
      ],
      "stateMutability": "view",
      "type": "function"
    },
    {
      "inputs": [],
      "name": "entropy",
      "outputs": [
        {
          "internalType": "uint72",
          "name": "",
          "type": "uint72"
        }
      ],
      "stateMutability": "view",
      "type": "function"
    },
    {
      "inputs": [
        {
          "internalType": "contract Ship",
          "name": "",
          "type": "address"
        }
      ],
      "name": "getShipData",
      "outputs": [
        {
          "internalType": "uint256",
          "name": "positionX",
          "type": "uint256"
        },
        {
          "internalType": "uint256",
          "name": "positionY",
          "type": "uint256"
        },
        {
          "internalType": "contract Ship",
          "name": "ship",
          "type": "address"
        }
      ],
      "stateMutability": "view",
      "type": "function"
    },
    {
      "inputs": [],
      "name": "getStars",
      "outputs": [
        {
          "components": [
            {
              "internalType": "uint256",
              "name": "positionX",
              "type": "uint256"
            },
            {
              "internalType": "uint256",
              "name": "positionY",
              "type": "uint256"
            }
          ],
          "internalType": "struct BigSky.StarData[]",
          "name": "stars",
          "type": "tuple[]"
        }
      ],
      "stateMutability": "view",
      "type": "function"
    },
    {
      "inputs": [
        {
          "internalType": "contract Ship",
          "name": "ship",
          "type": "address"
        }
      ],
      "name": "registerPlayer",
      "outputs": [],
      "stateMutability": "nonpayable",
      "type": "function"
    },
    {
      "inputs": [
        {
          "internalType": "uint256",
          "name": "",
          "type": "uint256"
        }
      ],
      "name": "ships",
      "outputs": [
        {
          "internalType": "contract Ship",
          "name": "",
          "type": "address"
        }
      ],
      "stateMutability": "view",
      "type": "function"
    },
    {
      "inputs": [
        {
          "internalType": "uint256",
          "name": "",
          "type": "uint256"
        }
      ],
      "name": "stars",
      "outputs": [
        {
          "internalType": "uint256",
          "name": "positionX",
          "type": "uint256"
        },
        {
          "internalType": "uint256",
          "name": "positionY",
          "type": "uint256"
        }
      ],
      "stateMutability": "view",
      "type": "function"
    },
    {
      "inputs": [],
      "name": "startGame",
      "outputs": [],
      "stateMutability": "nonpayable",
      "type": "function"
    },
    {
      "inputs": [],
      "name": "state",
      "outputs": [
        {
          "internalType": "enum BigSky.State",
          "name": "",
          "type": "uint8"
        }
      ],
      "stateMutability": "view",
      "type": "function"
    },
    {
      "inputs": [],
      "name": "turn",
      "outputs": [
        {
          "internalType": "uint72",
          "name": "",
          "type": "uint72"
        }
      ],
      "stateMutability": "view",
      "type": "function"
    }
  ],
  "bytecode": {
    "object": "0x60a060405260008054600160501b600160981b0319166a0a0000000000000000000017905534801561003057600080fd5b5033608052608051610b9661004d60003960005050610b966000f3fe608060405234801561001057600080fd5b506004361061009e5760003560e01c80637d7cb1e2116100665780637d7cb1e2146101535780638b299903146101ae578063b3a21849146101c8578063c19d93fb146101d7578063d65ab5f2146101f157600080fd5b806347ce07cc146100a35780634d4e8dfa146100d85780635434198014610103578063685c63421461012b5780636b5cc6d91461013e575b600080fd5b6000546100bb9061010090046001600160481b031681565b6040516001600160481b0390911681526020015b60405180910390f35b6100eb6100e63660046108e4565b6101f9565b6040516001600160a01b0390911681526020016100cf565b6101166101113660046108e4565b610223565b604080519283526020830191909152016100cf565b6101166101393660046108e4565b610251565b61015161014c3660046108fd565b610261565b005b61018a6101613660046108fd565b60026020819052600091825260409091208054600182015491909201546001600160a01b031683565b6040805193845260208401929092526001600160a01b0316908201526060016100cf565b6000546100bb90600160501b90046001600160481b031681565b60606040516100cf919061092d565b6000546101e49060ff1681565b6040516100cf919061099a565b6101516103af565b6001818154811061020957600080fd5b6000918252602090912001546001600160a01b0316905081565b6003818154811061023357600080fd5b60009182526020909120600290910201805460019091015490915082565b6004818154811061023357600080fd5b6001600160a01b038181166000908152600260208190526040909120015416156102c45760405162461bcd60e51b815260206004820152600f60248201526e2227aaa12622afa922a3a4a9aa22a960891b60448201526064015b60405180910390fd5b6000805460ff191681556040805160608101825282815260208082018481526001600160a01b038681168486018181528188526002948590528688209551865592516001868101919091559251949093018054949091166001600160a01b0319948516179055805480820182559085527fb10e2d527612073b26eecdfd717e6a320cf44b4afac2b0732d9fcbe2b7fa0cf6018054909216811790915582546001600160481b0342166101000269ffffffffffffffffff001990911617835590519091907ffecbdcf0a9f4ce48cf08b8ced4541e16ef602449e114d2a90954fbcb0648a472908290a350565b6000805460ff191660011790556103c4610429565b6103cc6104fd565b6000546103e890600160501b90046001600160481b0316610608565b6000546040517f13cb55fc1bec4b9f4cd4c22f154240b469cb108a23a35aa599df0c3da46f2d149161041f9160ff9091169061099a565b60405180910390a1565b600080610449604051806040016040528060008152602001600081525090565b60005b60038110156104f75761045e81610869565b9350610469816108c4565b60408051808201909152858152602081018281526003805460018101825560009190915282517fc2575a0e9e593c00f959f8c92f12db2869c3395a3b0502d05e2516446f71f85b60029092029182015590517fc2575a0e9e593c00f959f8c92f12db2869c3395a3b0502d05e2516446f71f85c909101559093509150806104ef816109d8565b91505061044c565b50505050565b60008061051d604051806040016040528060008152602001600081525090565b60005b600f81116105ca5761053181610869565b935061053c816108c4565b60408051808201909152858152602081018281526004805460018101825560009190915282517f8a35acfbc15ff81a39ae7d344fd709f28e8600b4aa8c65c6b64bfe7fe36bd19b60029092029182015590517f8a35acfbc15ff81a39ae7d344fd709f28e8600b4aa8c65c6b64bfe7fe36bd19c909101559093509150806105c2816109d8565b915050610520565b507f485010ad25183efb8625ab8d819e45c19f8864d50f7d2c358e4679546bf3ffa460046040516105fb91906109f1565b60405180910390a1505050565b600160005460ff16600281111561062157610621610984565b146106605760405162461bcd60e51b815260206004820152600f60248201526e47414d45204e4f542041435449564560881b60448201526064016102bb565b801561086657600060018054806020026020016040519081016040528092919081815260200182805480156106be57602002820191906000526020600020905b81546001600160a01b031681526001909101906020018083116106a0575b5050505050905060006003805480602002602001604051908101604052809291908181526020016000905b8282101561072f578382906000526020600020906002020160405180604001604052908160008201548152602001600182015481525050815260200190600101906106e9565b50505050905060006004805480602002602001604051908101604052809291908181526020016000905b8282101561079f57838290600052602060002090600202016040518060400160405290816000820154815260200160018201548152505081526020019060010190610759565b50506000805493945087939092508691506107cc90600190600160501b90046001600160481b0316610a51565b6001600160481b0316815181106107e5576107e5610a77565b602002602001015190507fe484b628626164f1dadadd8635f84b929e0aea7a86645ea859d038b52a88977a8260026000846001600160a01b03166001600160a01b031681526020019081526020016000208660405161084693929190610a8d565b60405180910390a15050505050808061085e90610b16565b915050610660565b50565b60008054600c9061088990849061010090046001600160481b0316610b2d565b60405160200161089b91815260200190565b6040516020818303038152906040528051906020012060001c6108be9190610b4c565b92915050565b6000805460119061088990849061010090046001600160481b0316610b2d565b6000602082840312156108f657600080fd5b5035919050565b60006020828403121561090f57600080fd5b81356001600160a01b038116811461092657600080fd5b9392505050565b602080825282518282018190526000919060409081850190868401855b828110156109775761096784835180518252602090810151910152565b928401929085019060010161094a565b5091979650505050505050565b634e487b7160e01b600052602160045260246000fd5b60208101600383106109bc57634e487b7160e01b600052602160045260246000fd5b91905290565b634e487b7160e01b600052601160045260246000fd5b6000600182016109ea576109ea6109c2565b5060010190565b60006020808301818452808554808352604092508286019150866000528360002060005b828110156109775781548452600180830154878601529385019360029092019101610a15565b634e487b7160e01b600052601260045260246000fd5b60006001600160481b0380841680610a6b57610a6b610a3b565b92169190910692915050565b634e487b7160e01b600052603260045260246000fd5b600060a0820185835260208554818501526001808701546040818188015260018060a01b0360028a015416606088015260a06080880152849150875180865260c088019250848901955060005b81811015610b0657610af784885180518252602090810151910152565b95850195928201928401610ada565b50919a9950505050505050505050565b600081610b2557610b256109c2565b506000190190565b6000816000190483118215151615610b4757610b476109c2565b500290565b600082610b5b57610b5b610a3b565b50069056fea264697066735822122055c3fcdc19b79864ac3915e44c0cd53e24d4a00e2cfb3c2a224f215e67ffc59964736f6c634300080d0033",
    "linkReferences": {}
  },
  "methodIdentifiers": {
    "enemies(uint256)": "54341980",
    "entropy()": "47ce07cc",
    "getShipData(address)": "7d7cb1e2",
    "getStars()": "b3a21849",
    "registerPlayer(address)": "6b5cc6d9",
    "ships(uint256)": "4d4e8dfa",
    "stars(uint256)": "685c6342",
    "startGame()": "d65ab5f2",
    "state()": "c19d93fb",
    "turn()": "8b299903"
  },
  "id": 14
}