{
  "abi": [
    {
      "inputs": [],
      "stateMutability": "nonpayable",
      "type": "constructor"
    },
    {
      "inputs": [],
      "name": "startGame",
      "outputs": [],
      "stateMutability": "nonpayable",
      "type": "function"
    }
  ],
  "bytecode": {
    "object": "0x60a0604052348015600f57600080fd5b5033608052608051607661002a6000396000505060766000f3fe6080604052348015600f57600080fd5b506004361060285760003560e01c8063d65ab5f214602d575b600080fd5b603e6000805460ff19166001179055565b00fea2646970667358221220514fc1c121d40a9441ced3cfe46b6a7400e4133a0a019266034eedbc7755408e64736f6c634300080d0033",
    "linkReferences": {}
  },
  "methodIdentifiers": {
    "startGame()": "d65ab5f2"
  },
  "id": 14
}