{
  "abi": [
    {
      "inputs": [],
      "stateMutability": "nonpayable",
      "type": "constructor"
    },
    {
      "anonymous": false,
      "inputs": [
        {
          "indexed": false,
          "internalType": "bool",
          "name": "_isStarted",
          "type": "bool"
        }
      ],
      "name": "GameStart",
      "type": "event"
    },
    {
      "anonymous": false,
      "inputs": [
        {
          "indexed": false,
          "internalType": "uint256",
          "name": "_positionX",
          "type": "uint256"
        },
        {
          "indexed": false,
          "internalType": "uint256",
          "name": "_positionyY",
          "type": "uint256"
        }
      ],
      "name": "PlayerMover",
      "type": "event"
    },
    {
      "inputs": [],
      "name": "getPosition",
      "outputs": [
        {
          "components": [
            {
              "internalType": "uint256",
              "name": "positionX",
              "type": "uint256"
            },
            {
              "internalType": "uint256",
              "name": "positionY",
              "type": "uint256"
            }
          ],
          "internalType": "struct BigSky.ShipData",
          "name": "_ship",
          "type": "tuple"
        }
      ],
      "stateMutability": "view",
      "type": "function"
    },
    {
      "inputs": [],
      "name": "startGame",
      "outputs": [],
      "stateMutability": "nonpayable",
      "type": "function"
    },
    {
      "inputs": [
        {
          "internalType": "uint256",
          "name": "_x",
          "type": "uint256"
        },
        {
          "internalType": "uint256",
          "name": "_y",
          "type": "uint256"
        }
      ],
      "name": "updatePosition",
      "outputs": [],
      "stateMutability": "nonpayable",
      "type": "function"
    }
  ],
  "bytecode": {
    "object": "0x60a060405234801561001057600080fd5b50336080526080516101f361002d600039600050506101f36000f3fe608060405234801561001057600080fd5b50600436106100415760003560e01c80637398ab1814610046578063759bfedf1461008d578063d65ab5f2146100a2575b600080fd5b604080518082018252600080825260209182015281518083019092526001548252600254908201526040805182518152602092830151928101929092520160405180910390f35b6100a061009b36600461019b565b6100aa565b005b6100a06100f2565b6001829055600281905560408051838152602081018390527ffe66a0d55bd8f0da25b1d644b8191653d7c194e2d8c4cc28277e0a74acc5b1b991015b60405180910390a15050565b6000805460ff19166001179055610107610145565b60005460405160ff909116151581527f304f047b3cdaa4ff8ec92cf0b4ad8aad3e480cffd31d8cee7293dc4f5898408c9060200160405180910390a1565b604080518082018252600080825260209182018190526001819055600281905582518181529182018190529182917ffe66a0d55bd8f0da25b1d644b8191653d7c194e2d8c4cc28277e0a74acc5b1b991016100e6565b600080604083850312156101ae57600080fd5b5050803592602090910135915056fea26469706673582212201341be063fd8303c28a98d11beaff22147b4962e85118568f2ed527ce2a4acbb64736f6c634300080d0033",
    "linkReferences": {}
  },
  "methodIdentifiers": {
    "getPosition()": "7398ab18",
    "startGame()": "d65ab5f2",
    "updatePosition(uint256,uint256)": "759bfedf"
  },
  "id": 14
}