{
  "abi": [
    {
      "inputs": [],
      "stateMutability": "nonpayable",
      "type": "constructor"
    },
    {
      "anonymous": false,
      "inputs": [
        {
          "indexed": false,
          "internalType": "enum BigSky.State",
          "name": "state",
          "type": "uint8"
        }
      ],
      "name": "GameStarted",
      "type": "event"
    },
    {
      "anonymous": false,
      "inputs": [
        {
          "indexed": false,
          "internalType": "uint256",
          "name": "positionX",
          "type": "uint256"
        },
        {
          "indexed": false,
          "internalType": "uint256",
          "name": "positionY",
          "type": "uint256"
        }
      ],
      "name": "PlayerMove",
      "type": "event"
    },
    {
      "anonymous": false,
      "inputs": [
        {
          "indexed": true,
          "internalType": "uint256",
          "name": "turn",
          "type": "uint256"
        },
        {
          "indexed": true,
          "internalType": "contract Ship",
          "name": "ship",
          "type": "address"
        }
      ],
      "name": "ShipRegistered",
      "type": "event"
    },
    {
      "anonymous": false,
      "inputs": [
        {
          "components": [
            {
              "internalType": "uint256",
              "name": "positionX",
              "type": "uint256"
            },
            {
              "internalType": "uint256",
              "name": "positionY",
              "type": "uint256"
            },
            {
              "internalType": "bool",
              "name": "isActive",
              "type": "bool"
            }
          ],
          "indexed": false,
          "internalType": "struct BigSky.StarData[]",
          "name": "_stars",
          "type": "tuple[]"
        }
      ],
      "name": "StarLocations",
      "type": "event"
    },
    {
      "anonymous": false,
      "inputs": [
        {
          "indexed": false,
          "internalType": "uint256",
          "name": "turn",
          "type": "uint256"
        },
        {
          "components": [
            {
              "internalType": "uint256",
              "name": "positionX",
              "type": "uint256"
            },
            {
              "internalType": "uint256",
              "name": "positionY",
              "type": "uint256"
            },
            {
              "internalType": "contract Ship",
              "name": "ship",
              "type": "address"
            }
          ],
          "indexed": false,
          "internalType": "struct BigSky.ShipData",
          "name": "ship",
          "type": "tuple"
        },
        {
          "components": [
            {
              "internalType": "uint256",
              "name": "positionX",
              "type": "uint256"
            },
            {
              "internalType": "uint256",
              "name": "positionY",
              "type": "uint256"
            }
          ],
          "indexed": false,
          "internalType": "struct BigSky.EnemyData[]",
          "name": "enemies",
          "type": "tuple[]"
        }
      ],
      "name": "TurnComplete",
      "type": "event"
    },
    {
      "inputs": [
        {
          "internalType": "uint256",
          "name": "",
          "type": "uint256"
        }
      ],
      "name": "enemies",
      "outputs": [
        {
          "internalType": "uint256",
          "name": "positionX",
          "type": "uint256"
        },
        {
          "internalType": "uint256",
          "name": "positionY",
          "type": "uint256"
        }
      ],
      "stateMutability": "view",
      "type": "function"
    },
    {
      "inputs": [],
      "name": "entropy",
      "outputs": [
        {
          "internalType": "uint72",
          "name": "",
          "type": "uint72"
        }
      ],
      "stateMutability": "view",
      "type": "function"
    },
    {
      "inputs": [
        {
          "internalType": "contract Ship",
          "name": "",
          "type": "address"
        }
      ],
      "name": "getShipData",
      "outputs": [
        {
          "internalType": "uint256",
          "name": "positionX",
          "type": "uint256"
        },
        {
          "internalType": "uint256",
          "name": "positionY",
          "type": "uint256"
        },
        {
          "internalType": "contract Ship",
          "name": "ship",
          "type": "address"
        }
      ],
      "stateMutability": "view",
      "type": "function"
    },
    {
      "inputs": [
        {
          "internalType": "uint8",
          "name": "_move",
          "type": "uint8"
        }
      ],
      "name": "playerMove",
      "outputs": [],
      "stateMutability": "nonpayable",
      "type": "function"
    },
    {
      "inputs": [],
      "name": "playerScore",
      "outputs": [
        {
          "internalType": "uint256",
          "name": "",
          "type": "uint256"
        }
      ],
      "stateMutability": "view",
      "type": "function"
    },
    {
      "inputs": [
        {
          "internalType": "contract Ship",
          "name": "ship",
          "type": "address"
        }
      ],
      "name": "registerPlayer",
      "outputs": [],
      "stateMutability": "nonpayable",
      "type": "function"
    },
    {
      "inputs": [
        {
          "internalType": "uint256",
          "name": "",
          "type": "uint256"
        }
      ],
      "name": "ships",
      "outputs": [
        {
          "internalType": "contract Ship",
          "name": "",
          "type": "address"
        }
      ],
      "stateMutability": "view",
      "type": "function"
    },
    {
      "inputs": [
        {
          "internalType": "uint256",
          "name": "",
          "type": "uint256"
        }
      ],
      "name": "stars",
      "outputs": [
        {
          "internalType": "uint256",
          "name": "positionX",
          "type": "uint256"
        },
        {
          "internalType": "uint256",
          "name": "positionY",
          "type": "uint256"
        },
        {
          "internalType": "bool",
          "name": "isActive",
          "type": "bool"
        }
      ],
      "stateMutability": "view",
      "type": "function"
    },
    {
      "inputs": [],
      "name": "startGame",
      "outputs": [],
      "stateMutability": "nonpayable",
      "type": "function"
    },
    {
      "inputs": [],
      "name": "state",
      "outputs": [
        {
          "internalType": "enum BigSky.State",
          "name": "",
          "type": "uint8"
        }
      ],
      "stateMutability": "view",
      "type": "function"
    },
    {
      "inputs": [],
      "name": "turn",
      "outputs": [
        {
          "internalType": "uint72",
          "name": "",
          "type": "uint72"
        }
      ],
      "stateMutability": "view",
      "type": "function"
    }
  ],
  "bytecode": {
    "object": "0x60a060405260008054600160501b600160981b0319166a0a0000000000000000000017905534801561003057600080fd5b503360805260805161108461004d600039600050506110846000f3fe608060405234801561001057600080fd5b50600436106100a95760003560e01c80636b5cc6d9116100715780636b5cc6d91461017d5780637d7cb1e21461019257806388cc4937146101ee5780638b29990314610201578063c19d93fb1461021b578063d65ab5f21461023557600080fd5b806307a88fef146100ae57806347ce07cc146100ca5780634d4e8dfa146100fa5780635434198014610125578063685c63421461014d575b600080fd5b6100b760015481565b6040519081526020015b60405180910390f35b6000546100e29061010090046001600160481b031681565b6040516001600160481b0390911681526020016100c1565b61010d610108366004610da3565b61023d565b6040516001600160a01b0390911681526020016100c1565b610138610133366004610da3565b610267565b604080519283526020830191909152016100c1565b61016061015b366004610da3565b610295565b6040805193845260208401929092521515908201526060016100c1565b61019061018b366004610dbc565b6102cb565b005b6101ca6101a0366004610dbc565b6003602052600090815260409020805460018201546002909201549091906001600160a01b031683565b6040805193845260208401929092526001600160a01b0316908201526060016100c1565b6101906101fc366004610dec565b61041b565b6000546100e290600160501b90046001600160481b031681565b6000546102289060ff1681565b6040516100c19190610e25565b610190610548565b6002818154811061024d57600080fd5b6000918252602090912001546001600160a01b0316905081565b6004818154811061027757600080fd5b60009182526020909120600290910201805460019091015490915082565b600581815481106102a557600080fd5b600091825260209091206003909102018054600182015460029092015490925060ff1683565b6001600160a01b03818116600090815260036020526040902060020154161561032d5760405162461bcd60e51b815260206004820152600f60248201526e2227aaa12622afa922a3a4a9aa22a960891b60448201526064015b60405180910390fd5b6000805460ff191681556040805160608101825282815260208082018481526001600160a01b0386811684860181815281885260039094528587209451855591516001858101919091559251600294850180546001600160a01b031990811692909316919091179055835492830184559285527f405787fa12a823e0f2b7631cc41b3ba8828b3321ca811111fa75cd3aa3bb5ace90910180549092168117909155825469ffffffffffffffffff001916610100426001600160481b03160217835590519091907ffecbdcf0a9f4ce48cf08b8ced4541e16ef602449e114d2a90954fbcb0648a472908290a350565b3360009081526003602052604081209060ff83169003610479576011816001015460016104489190610e63565b106104655760405162461bcd60e51b815260040161032490610e7b565b60018082015461047491610e63565b505050565b8160ff166001036104c5576000600182600101546104979190610e9a565b116104b45760405162461bcd60e51b815260040161032490610e7b565b600181600101546104749190610e9a565b8160ff1660020361050c5780546000906104e190600190610e9a565b116104fe5760405162461bcd60e51b815260040161032490610e7b565b805461047490600190610e9a565b8160ff16600303610544578054600c90610527906001610e63565b106104fe5760405162461bcd60e51b815260040161032490610e7b565b5050565b6000805460ff1916600117905561055d6105c2565b610565610696565b60005461058190600160501b90046001600160481b03166107d7565b6000546040517f13cb55fc1bec4b9f4cd4c22f154240b469cb108a23a35aa599df0c3da46f2d14916105b89160ff90911690610e25565b60405180910390a1565b6000806105e2604051806040016040528060008152602001600081525090565b60005b6003811015610690576105f781610aa4565b935061060281610aff565b60408051808201909152858152602081018281526004805460018101825560009190915282517f8a35acfbc15ff81a39ae7d344fd709f28e8600b4aa8c65c6b64bfe7fe36bd19b60029092029182015590517f8a35acfbc15ff81a39ae7d344fd709f28e8600b4aa8c65c6b64bfe7fe36bd19c9091015590935091508061068881610eb1565b9150506105e5565b50505050565b60408051606081018252600080825260208201819052918101829052819060005b600f8111610799576106c881610aa4565b93506106d381610aff565b6040805160608101825286815260208101838152600192820183815260058054948501815560005282517f036b6384b5eca791c62761152d0c79bb0604c104a5fb6f4eb0703f3154bb3db060039095029485015590517f036b6384b5eca791c62761152d0c79bb0604c104a5fb6f4eb0703f3154bb3db1840155517f036b6384b5eca791c62761152d0c79bb0604c104a5fb6f4eb0703f3154bb3db2909201805460ff19169215159290921790915590935091508061079181610eb1565b9150506106b7565b507f2b1c014895f9e91ba2f05abb072bbf0edda4c8d20a06f5812b98918bd6dff5af60056040516107ca9190610eca565b60405180910390a1505050565b600160005460ff1660028111156107f0576107f0610e0f565b1461082f5760405162461bcd60e51b815260206004820152600f60248201526e47414d45204e4f542041435449564560881b6044820152606401610324565b8015610aa1576000600280548060200260200160405190810160405280929190818152602001828054801561088d57602002820191906000526020600020905b81546001600160a01b0316815260019091019060200180831161086f575b5050505050905060006004805480602002602001604051908101604052809291908181526020016000905b828210156108fe578382906000526020600020906002020160405180604001604052908160008201548152602001600182015481525050815260200190600101906108b8565b50505050905060006005805480602002602001604051908101604052809291908181526020016000905b828210156109795760008481526020908190206040805160608101825260038602909201805483526001808201548486015260029091015460ff161515918301919091529083529092019101610928565b50506000805493945087939092508691506109a690600190600160501b90046001600160481b0316610f47565b6001600160481b0316815181106109bf576109bf610f6d565b602002602001015190506000816001600160a01b03166353c3f90a826040518263ffffffff1660e01b81526004016109f991815260200190565b600060405180830381600087803b158015610a1357600080fd5b505af1158015610a27573d6000803e3d6000fd5b50505050610a3483610b1f565b6001600160a01b0382166000908152600360205260409081902090517fe484b628626164f1dadadd8635f84b929e0aea7a86645ea859d038b52a88977a91610a80918691908990610f83565b60405180910390a15050505050508080610a9990611004565b91505061082f565b50565b60008054600c90610ac490849061010090046001600160481b031661101b565b604051602001610ad691815260200190565b6040516020818303038152906040528051906020012060001c610af9919061103a565b92915050565b60008054601190610ac490849061010090046001600160481b031661101b565b60008054600490610b3f90849061010090046001600160481b031661101b565b604051602001610b5191815260200190565b6040516020818303038152906040528051906020012060001c610b74919061103a565b905060005b60045481101561047457600060048281548110610b9857610b98610f6d565b9060005260206000209060020201600001549050600060048381548110610bc157610bc1610f6d565b906000526020600020906002020160010154905083600003610c4a57601260048481548110610bf257610bf2610f6d565b9060005260206000209060020201600001541015610c4557600160048481548110610c1f57610c1f610f6d565b90600052602060002090600202016000016000828254610c3f9190610e63565b90915550505b610d8e565b83600103610cb457600060048481548110610c6757610c67610f6d565b9060005260206000209060020201600001541115610c4557600160048481548110610c9457610c94610f6d565b90600052602060002090600202016000016000828254610c3f9190610e9a565b83600203610d1e57600c60048481548110610cd157610cd1610f6d565b9060005260206000209060020201600101541015610c4557600160048481548110610cfe57610cfe610f6d565b90600052602060002090600202016001016000828254610c3f9190610e63565b83600303610d8e57600060048481548110610d3b57610d3b610f6d565b9060005260206000209060020201600101541115610d8e57600160048481548110610d6857610d68610f6d565b90600052602060002090600202016001016000828254610d889190610e9a565b90915550505b50508080610d9b90610eb1565b915050610b79565b600060208284031215610db557600080fd5b5035919050565b600060208284031215610dce57600080fd5b81356001600160a01b0381168114610de557600080fd5b9392505050565b600060208284031215610dfe57600080fd5b813560ff81168114610de557600080fd5b634e487b7160e01b600052602160045260246000fd5b6020810160038310610e4757634e487b7160e01b600052602160045260246000fd5b91905290565b634e487b7160e01b600052601160045260246000fd5b60008219821115610e7657610e76610e4d565b500190565b60208082526005908201526432b93937b960d91b604082015260600190565b600082821015610eac57610eac610e4d565b500390565b600060018201610ec357610ec3610e4d565b5060010190565b60006020808301818452808554808352604092508286019150866000528360002060005b82811015610f24578154845260018083015487860152600283015460ff1615158686015260609094019360039092019101610eee565b5091979650505050505050565b634e487b7160e01b600052601260045260246000fd5b60006001600160481b0380841680610f6157610f61610f31565b92169190910692915050565b634e487b7160e01b600052603260045260246000fd5b600060a0820185835260208554818501526001808701546040818188015260018060a01b0360028a015416606088015260a06080880152849150875180865260c088019250848901955060005b81811015610ff4578651805185528601518685015295850195928201928401610fd0565b50919a9950505050505050505050565b60008161101357611013610e4d565b506000190190565b600081600019048311821515161561103557611035610e4d565b500290565b60008261104957611049610f31565b50069056fea26469706673582212204866e306f3aad5ac2c939dded50fb9f1390610b0009612c81b4468e77a22899464736f6c634300080d0033",
    "linkReferences": {}
  },
  "methodIdentifiers": {
    "enemies(uint256)": "54341980",
    "entropy()": "47ce07cc",
    "getShipData(address)": "7d7cb1e2",
    "playerMove(uint8)": "88cc4937",
    "playerScore()": "07a88fef",
    "registerPlayer(address)": "6b5cc6d9",
    "ships(uint256)": "4d4e8dfa",
    "stars(uint256)": "685c6342",
    "startGame()": "d65ab5f2",
    "state()": "c19d93fb",
    "turn()": "8b299903"
  },
  "id": 14
}