{
  "abi": [
    {
      "anonymous": false,
      "inputs": [
        {
          "indexed": false,
          "internalType": "address",
          "name": "playerAddress",
          "type": "address"
        },
        {
          "indexed": false,
          "internalType": "uint256",
          "name": "score",
          "type": "uint256"
        },
        {
          "indexed": false,
          "internalType": "uint256",
          "name": "highScore",
          "type": "uint256"
        },
        {
          "indexed": false,
          "internalType": "uint256",
          "name": "starsCaptured",
          "type": "uint256"
        },
        {
          "indexed": false,
          "internalType": "uint256",
          "name": "gamesPlayed",
          "type": "uint256"
        }
      ],
      "name": "GameOver",
      "type": "event"
    },
    {
      "anonymous": false,
      "inputs": [
        {
          "indexed": false,
          "internalType": "enum BigSky.State",
          "name": "state",
          "type": "uint8"
        }
      ],
      "name": "GameStarted",
      "type": "event"
    },
    {
      "anonymous": false,
      "inputs": [
        {
          "indexed": true,
          "internalType": "uint256",
          "name": "turn",
          "type": "uint256"
        },
        {
          "indexed": true,
          "internalType": "contract Ship",
          "name": "ship",
          "type": "address"
        }
      ],
      "name": "ShipRegistered",
      "type": "event"
    },
    {
      "anonymous": false,
      "inputs": [
        {
          "indexed": false,
          "internalType": "uint256",
          "name": "playerScore",
          "type": "uint256"
        }
      ],
      "name": "StarCaptured",
      "type": "event"
    },
    {
      "anonymous": false,
      "inputs": [
        {
          "indexed": false,
          "internalType": "uint256",
          "name": "turn",
          "type": "uint256"
        },
        {
          "indexed": false,
          "internalType": "uint256",
          "name": "playerScore",
          "type": "uint256"
        },
        {
          "components": [
            {
              "internalType": "uint256",
              "name": "positionX",
              "type": "uint256"
            },
            {
              "internalType": "uint256",
              "name": "positionY",
              "type": "uint256"
            },
            {
              "internalType": "uint256",
              "name": "balance",
              "type": "uint256"
            },
            {
              "internalType": "contract Ship",
              "name": "ship",
              "type": "address"
            }
          ],
          "indexed": false,
          "internalType": "struct BigSky.ShipData",
          "name": "ships",
          "type": "tuple"
        },
        {
          "components": [
            {
              "internalType": "uint256",
              "name": "positionX",
              "type": "uint256"
            },
            {
              "internalType": "uint256",
              "name": "positionY",
              "type": "uint256"
            },
            {
              "internalType": "bool",
              "name": "isActive",
              "type": "bool"
            }
          ],
          "indexed": false,
          "internalType": "struct BigSky.StarData[]",
          "name": "allStars",
          "type": "tuple[]"
        }
      ],
      "name": "TurnComplete",
      "type": "event"
    },
    {
      "inputs": [],
      "name": "entropy",
      "outputs": [
        {
          "internalType": "uint72",
          "name": "",
          "type": "uint72"
        }
      ],
      "stateMutability": "view",
      "type": "function"
    },
    {
      "inputs": [
        {
          "internalType": "address",
          "name": "",
          "type": "address"
        }
      ],
      "name": "getPlayerData",
      "outputs": [
        {
          "internalType": "uint256",
          "name": "highScore",
          "type": "uint256"
        },
        {
          "internalType": "uint256",
          "name": "gamesPlayed",
          "type": "uint256"
        },
        {
          "internalType": "uint256",
          "name": "starsCaptured",
          "type": "uint256"
        },
        {
          "internalType": "uint256",
          "name": "index",
          "type": "uint256"
        },
        {
          "internalType": "address",
          "name": "playerAddress",
          "type": "address"
        }
      ],
      "stateMutability": "view",
      "type": "function"
    },
    {
      "inputs": [
        {
          "internalType": "contract Ship",
          "name": "",
          "type": "address"
        }
      ],
      "name": "getShipData",
      "outputs": [
        {
          "internalType": "uint256",
          "name": "positionX",
          "type": "uint256"
        },
        {
          "internalType": "uint256",
          "name": "positionY",
          "type": "uint256"
        },
        {
          "internalType": "uint256",
          "name": "balance",
          "type": "uint256"
        },
        {
          "internalType": "contract Ship",
          "name": "ship",
          "type": "address"
        }
      ],
      "stateMutability": "view",
      "type": "function"
    },
    {
      "inputs": [
        {
          "internalType": "contract Ship",
          "name": "ship",
          "type": "address"
        }
      ],
      "name": "launchShip",
      "outputs": [],
      "stateMutability": "nonpayable",
      "type": "function"
    },
    {
      "inputs": [
        {
          "internalType": "uint8",
          "name": "_move",
          "type": "uint8"
        }
      ],
      "name": "playerMove",
      "outputs": [],
      "stateMutability": "nonpayable",
      "type": "function"
    },
    {
      "inputs": [],
      "name": "playerScore",
      "outputs": [
        {
          "internalType": "uint256",
          "name": "",
          "type": "uint256"
        }
      ],
      "stateMutability": "view",
      "type": "function"
    },
    {
      "inputs": [
        {
          "internalType": "uint256",
          "name": "",
          "type": "uint256"
        }
      ],
      "name": "ships",
      "outputs": [
        {
          "internalType": "contract Ship",
          "name": "",
          "type": "address"
        }
      ],
      "stateMutability": "view",
      "type": "function"
    },
    {
      "inputs": [
        {
          "internalType": "uint256",
          "name": "",
          "type": "uint256"
        }
      ],
      "name": "stars",
      "outputs": [
        {
          "internalType": "uint256",
          "name": "positionX",
          "type": "uint256"
        },
        {
          "internalType": "uint256",
          "name": "positionY",
          "type": "uint256"
        },
        {
          "internalType": "bool",
          "name": "isActive",
          "type": "bool"
        }
      ],
      "stateMutability": "view",
      "type": "function"
    },
    {
      "inputs": [],
      "name": "state",
      "outputs": [
        {
          "internalType": "enum BigSky.State",
          "name": "",
          "type": "uint8"
        }
      ],
      "stateMutability": "view",
      "type": "function"
    },
    {
      "inputs": [],
      "name": "turn",
      "outputs": [
        {
          "internalType": "uint72",
          "name": "",
          "type": "uint72"
        }
      ],
      "stateMutability": "view",
      "type": "function"
    }
  ],
  "bytecode": {
    "object": "0x608060405260008054600160501b600160981b0319166a1e0000000000000000000017905534801561003057600080fd5b50610ed6806100406000396000f3fe608060405234801561001057600080fd5b506004361061009e5760003560e01c80637d7cb1e2116100665780637d7cb1e2146101c257806388cc4937146102295780638b2999031461023e578063b9c1d50214610258578063c19d93fb1461026b57600080fd5b806307a88fef146100a35780632aa531d9146100bf57806347ce07cc146101375780634d4e8dfa14610167578063685c634214610192575b600080fd5b6100ac60015481565b6040519081526020015b60405180910390f35b6101066100cd366004610c5b565b6003602081905260009182526040909120805460018201546002830154938301546004909301549193909290916001600160a01b031685565b6040805195865260208601949094529284019190915260608301526001600160a01b0316608082015260a0016100b6565b60005461014f9061010090046001600160481b031681565b6040516001600160481b0390911681526020016100b6565b61017a610175366004610c7f565b610285565b6040516001600160a01b0390911681526020016100b6565b6101a56101a0366004610c7f565b6102af565b6040805193845260208401929092521515908201526060016100b6565b6102006101d0366004610c5b565b6005602052600090815260409020805460018201546002830154600390930154919290916001600160a01b031684565b604080519485526020850193909352918301526001600160a01b031660608201526080016100b6565b61023c610237366004610c98565b6102e5565b005b60005461014f90600160501b90046001600160481b031681565b61023c610266366004610c5b565b610480565b6000546102789060ff1681565b6040516100b69190610cbb565b6004818154811061029557600080fd5b6000918252602090912001546001600160a01b0316905081565b600681815481106102bf57600080fd5b600091825260209091206003909102018054600182015460029092015490925060ff1683565b3360009081526005602052604090206002810154600190610307908290610cf9565b1161034c5760405162461bcd60e51b81526020600482015260116024820152706e6f7420656e6f75676820746f6b656e7360781b604482015260640160405180910390fd5b8160ff1660000361039c5760018082015460099161036a9190610d10565b111561037c5760006001820155610462565b60018160010160008282546103919190610d10565b909155506104629050565b8160ff166001036103df5760018082600101546103b99190610cf9565b116103ca5760096001820155610462565b60018160010160008282546103919190610cf9565b8160ff1660020361041e578054600f906103fa906001610d10565b11156104095760008155610462565b60018160000160008282546103919190610d10565b8160ff16600303610462578054600190610439908290610cf9565b1161044757600f8155610462565b600181600001600082825461045c9190610cf9565b90915550505b60018160020160008282546104779190610cf9565b90915550505050565b336000818152600360208181526040808420815160a081018352815481526001820154938101939093526002810154918301919091529091015460608201526080810192909252805469ffffffffffffffffff001916610100426001600160481b0316021790556104ef6105f4565b6000805461050a9061010090046001600160481b03166106f8565b60008054919250906105299061010090046001600160481b0316610753565b60408051608081018252848152602080820184815260648385019081526001600160a01b03808b16606086018181526000828152600590965296852095518655925160018087019190915591516002860155945160039094018054949095166001600160a01b03199485161790945560048054948501815582527f8a35acfbc15ff81a39ae7d344fd709f28e8600b4aa8c65c6b64bfe7fe36bd19b90930180549092169092179055549091506105ee90600160501b90046001600160481b0316610773565b50505050565b60408051606081018252600080825260208201819052918101829052819060005b60108110156105ee57610627816106f8565b935061063281610753565b6040805160608101825286815260208101838152600192820183815260068054948501815560005282517ff652222313e28459528d920b65115c16c04f3efc82aaedc97be59f3f377c0d3f60039095029485015590517ff652222313e28459528d920b65115c16c04f3efc82aaedc97be59f3f377c0d40840155517ff652222313e28459528d920b65115c16c04f3efc82aaedc97be59f3f377c0d41909201805460ff1916921515929092179091559093509150806106f081610d28565b915050610615565b60008054600f9061071890849061010090046001600160481b0316610d41565b60405160200161072a91815260200190565b6040516020818303038152906040528051906020012060001c61074d9190610d60565b92915050565b6000805460099061071890849061010090046001600160481b0316610d41565b80156109a257600060048054806020026020016040519081016040528092919081815260200182805480156107d157602002820191906000526020600020905b81546001600160a01b031681526001909101906020018083116107b3575b5050505050905060006006805480602002602001604051908101604052809291908181526020016000905b8282101561084d5760008481526020908190206040805160608101825260038602909201805483526001808201548486015260029091015460ff1615159183019190915290835290920191016107fc565b505060045492935085926000925085915061086a90600190610cf9565b8151811061087a5761087a610d82565b6020908102919091018101516001600160a01b038082166000818152600585526040908190208151608081018352815481526001820154968101969096526002810154868301526003015490921660608501529051630746936b60e01b815291935090630746936b90621e8480906108f89085908990600401610deb565b600060405180830381600088803b15801561091257600080fd5b5087f1158015610926573d6000803e3d6000fd5b505050505061093482610ab5565b6001546001600160a01b0383166000908152600560205260409081902090517f2edff50f6baa2ce40b033353bb26772b8d8693ca151787d5877650c9ae1a517f926109829287928990610e33565b60405180910390a15050505050808061099a90610e89565b915050610773565b336000908152600360205260409020805460015411156109c25760015481555b6000805b600654811015610a3d57600681815481106109e3576109e3610d82565b600091825260209091206002600390920201015460ff161515600114610a2b57610a0e600183610d10565b91506001836002016000828254610a259190610d10565b90915550505b80610a3581610d28565b9150506109c6565b506001826001016000828254610a539190610d10565b9091555050600180548354918401546040805133815260208101939093528281019390935260608201849052608082015290517f3e4bb26dc93be285276395f8228ef9df9d58042b882d2a6c0267274440ed82ae9181900360a00190a1505050565b6001600160a01b0380821660009081526005602090815260408083208151608081018352815481526001820154938101939093526002810154918301919091526003015490921660608301525b600654811015610c3e5781516006805483908110610b2257610b22610d82565b906000526020600020906003020160000154148015610b685750816020015160068281548110610b5457610b54610d82565b906000526020600020906003020160010154145b8015610b9f575060068181548110610b8257610b82610d82565b600091825260209091206002600390920201015460ff1615156001145b15610c2c57600560016000828254610bb79190610d10565b92505081905550600060068281548110610bd357610bd3610d82565b6000918252602091829020600390910201600201805460ff1916921515929092179091556001546040519081527f800be03d4293ad87f648064dfbd4d2ceb0065c476f6781930a7466a80e577ad0910160405180910390a15b80610c3681610d28565b915050610b02565b505050565b6001600160a01b0381168114610c5857600080fd5b50565b600060208284031215610c6d57600080fd5b8135610c7881610c43565b9392505050565b600060208284031215610c9157600080fd5b5035919050565b600060208284031215610caa57600080fd5b813560ff81168114610c7857600080fd5b6020810160038310610cdd57634e487b7160e01b600052602160045260246000fd5b91905290565b634e487b7160e01b600052601160045260246000fd5b600082821015610d0b57610d0b610ce3565b500390565b60008219821115610d2357610d23610ce3565b500190565b600060018201610d3a57610d3a610ce3565b5060010190565b6000816000190483118215151615610d5b57610d5b610ce3565b500290565b600082610d7d57634e487b7160e01b600052601260045260246000fd5b500690565b634e487b7160e01b600052603260045260246000fd5b600081518084526020808501945080840160005b83811015610de057815180518852838101518489015260409081015115159088015260609096019590820190600101610dac565b509495945050505050565b82518152602083015160208201526040830151604082015260018060a01b03606084015116606082015260a060808201526000610e2b60a0830184610d98565b949350505050565b84815283602082015282546040820152600183015460608201526002830154608082015260018060a01b0360038401541660a082015260e060c08201526000610e7f60e0830184610d98565b9695505050505050565b600081610e9857610e98610ce3565b50600019019056fea2646970667358221220c5ffe992f0fcbda0495ab52476dbf5341484b21a1f0a9035e443a23cc34e75d564736f6c634300080d0033",
    "linkReferences": {}
  },
  "methodIdentifiers": {
    "entropy()": "47ce07cc",
    "getPlayerData(address)": "2aa531d9",
    "getShipData(address)": "7d7cb1e2",
    "launchShip(address)": "b9c1d502",
    "playerMove(uint8)": "88cc4937",
    "playerScore()": "07a88fef",
    "ships(uint256)": "4d4e8dfa",
    "stars(uint256)": "685c6342",
    "state()": "c19d93fb",
    "turn()": "8b299903"
  },
  "id": 17
}